:03000000020CD21D
:0C0CD200787FE4F6D8FD758146020D190C
:100D5E005472782040203A00576174696E6720669D
:100D6E006F72204461746100507265706172696EB9
:100D7E0067205472616E736D6974005472616E7384
:100D8E006D697373696F6E20446F6E650052656393
:100D9E00656976696E67203A00454550524F4D2081
:060DAE0046756C6C21008B
:060F87000443000000001D
:0B0F5900438901E4F58CF58AD28C225C
:100EFB00AF8CEFFEAD8AEDFF7C007D0C12082DE46C
:0A0F0B00FD7B337A2BF9F8020DB4D8
:080E3600D294D2957F017E00E9
:100E3E00E4FDFCC3ED9FEE6480F8EC6480985016E0
:100E4E00E4FBFA000BBB00010AEB64FA4A70F40DE6
:060E5E00BD00010C80DD67
:010E6400226B
:0C0F4D00759850758920758DFDD28E229C
:080F6F008F993099FDC299220F
:080F77003098FDC298AF9922E9
:100F29008FA0C290C291D2927F0A7E00120E3EC259
:020F3900922202
:100F15007F38120F297F0C120F297F01120F297FAD
:040F250080020F290E
:100F3B008FA0D290C291D2927F0A7E00120E3EC237
:020F4B009222F0
:060E65008B3E8A3F89402C
:100E6B00E4F541F542AB3EAA3FA94085428285415C
:100E7B0083120800FF600D120F3B0542E54270E53F
:040E8B00054180E1BC
:010E8F002240
:0B0F6400120E36C294120E3EC29522FF
:080F7F00C294120E38D2942234
:020E9000A907B0
:100E9200900000E930E703D38001C39294E925E092
:100EA200F9120E38C295A3E5826408458370E412F4
:040EB2000E36C295A1
:010EB6002219
:020DF8008F2941
:100DFA00E4F9D294F52AF52B120E38E925E0FFA280
:100E0A0094E4334FF9C295052BE52B7002052AC3EA
:100E1A009408E52A6480948040DEE5296003C38053
:0B0E2A0001D39294120E38C295AF0164
:010E3500229A
:100EDB008F288D29120F647FA0120E90AF28120E4F
:100EEB0090AF29120E90120F7F7F0A7E00020E3EEA
:020EB7008F2882
:100EB900120F647FA0120E90AF28120E90120F64C9
:100EC9007FA1120E90E4FF120DF8A907120F7FAF50
:010ED9000117
:010EDA0022F5
:080BAB008F2B8E2A8D298C2866
:100BB300E4F53CF53DFFFEFDFCAB2BAA2AA929A8D1
:100BC30028C31209927011053DE53D7002053C14DE
:100BD300242CF87630020C77E4FFFEFDFCAB2BAA45
:100BE3002AA929A828D3120992404AE53D940FE582
:100BF3003C64809480503EE47B0AFAF9F8AF2BAE54
:100C03002AAD29AC28120900EB2430FF053DE53D50
:100C13007002053C14242CF8A607AF2BAE2AAD298D
:100C2300AC28E47B0AFAF9F81209008F2B8E2A8D7F
:100C3300298C2880A3E4FBFAAE3CAF3D7C007D0207
:100C430012083FC3EB9FEE6480F8EA648098502457
:100C5300742C2BF8E6F9C3E53D9BFF742B2FF8E6C4
:100C6300FD742C2BF8A605742B2FF8A6010BBB00E3
:100C7300010A80C4053DE53D7002053C14242CF8AF
:100C83007620053DE53D7002053C14242CF8766280
:100C9300053DE53D7002053C14242CF87670053DB6
:100CA300E53D7002053C14242CF87673742C253D25
:100CB300F8E4F67F01120F297BFF7A0D795E120E9D
:0F0CC300657FC0120F297B007A00792C020E6525
:1009F800E4F508F509F51AF519F518F517F51EF5D2
:100A08001DF51CF51BF522F521F520F51FF526F53A
:100A180025F524F523120F4D120F15120F597BFFE0
:100A28007A0D7966120E65120EFB8F0E8E0D8D0CE7
:100A38008C0B120EFB8F128E118D108C0FC3E512CA
:100A4800950EF516E511950DF515E510950CF514AF
:100A5800E50F950BF513E47FD07E07FDFCAB16AAD6
:100A680015A914A813C31209924039E47F08FEFDA2
:100A7800FCAB1EAA1DA91CA81B120875AB16AA154B
:100A8800A914A8131209008F228E218D208C1FE42F
:100A9800F51EF51DF51CF51B85120E85110D85102B
:100AA8000C850F0B120F778F0AE50A643860030272
:100AB8000B5E7F01120F297BFF7A0D7976120E6586
:100AC800120EFB8F0E8E0D8D0C8C0BE4F51AF5199A
:0B0AD800F518F517E509C39508506EEE
:100AE300AF09120EB78F27120F6F0509E51A2401FC
:100AF300F51AE43519F519E43518F518E43517F541
:100B030017120EFB8F128E118D108C0FC3E51295E9
:100B13000EF516E511950DF515E510950CF514E593
:100B23000F950BF513E47F08FEFDFCAB1AAA19A978
:100B330018A817120875AB16AA15A914A813120939
:0C0B4300008F268E258D248C23120BAB16
:100B4F00808B7F01120F297BFF7A0D79898040AD51
:100B5F000AAF08120EDBE51E2401F51EE4351DF564
:100B6F001DE4351CF51CE4351BF51B7F01120F2905
:100B7F007BFF7A0D799B120E65AF0A120F3B0508AA
:100B8F00E508700E7F01120F297BFF7A0D79A702FE
:0C0B9F000E657F647E00120E3E020A3AD2
:100CDE000209F8E493A3F8E493A34003F68001F22B
:100CEE0008DFF48029E493A3F85407240CC8C33317
:100CFE00C4540F4420C8834004F456800146F6DFE6
:100D0E00E4800B0102040810204080900F87E47EDF
:100D1E00019360BCA3FF543F30E509541FFEE493DA
:100D2E00A360010ECF54C025E060A840B8E493A3A1
:100D3E00FAE493A3F8E493A3C8C582C8CAC583CACC
:100D4E00F0A3C8C582C8CAC583CADFE9DEE780BE84
:010F8D000063
:10080000BB010CE58229F582E5833AF583E02250AD
:1008100006E92582F8E622BBFE06E92582F8E222F7
:0D082000E58229F582E5833AF583E4932211
:10082D00EF8DF0A4A8F0CF8CF0A428CE8DF0A42EDF
:02083D00FE2299
:10083F00C2D5EC30E709B2D5E4C39DFDE49CFCEED4
:10084F0030E715B2D5E4C39FFFE49EFE1209A3C3A0
:10085F00E49DFDE49CFC80031209A330D507C3E49B
:06086F009FFFE49EFE2243
:10087500E88FF0A4CC8BF0A42CFCE98EF0A42CFC22
:100885008AF0EDA42CFCEA8EF0A4CDA8F08BF0A4A0
:100895002DCC3825F0FDE98FF0A42CCD35F0FCEBFF
:1008A5008EF0A4FEA9F0EB8FF0A4CFC5F02ECD39C4
:0F08B500FEE43CFCEAA42DCE35F0FDE43CFC2231
:1008C40075F008758200EF2FFFEE33FECD33CDCCEB
:1008D40033CCC58233C5829BED9AEC99E58298406E
:1008E4000CF582EE9BFEED9AFDEC99FC0FD5F0D64B
:1008F400E4CEFBE4CDFAE4CCF9A88222B800C1B975
:100904000059BA002DEC8BF084CFCECDFCE5F0CBB2
:10091400F97818EF2FFFEE33FEED33FDEC33FCEBEB
:1009240033FB10D703994004EB99FB0FD8E5E4F9A6
:10093400FA227818EF2FFFEE33FEED33FDEC33FC93
:10094400C933C910D7059BE99A4007EC9BFCE99A87
:10095400F90FD8E0E4C9FAE4CCFB2275F010EF2FCC
:10096400FFEE33FEED33FDCC33CCC833C810D707CC
:100974009BEC9AE899400AED9BFDEC9AFCE899F807
:0E0984000FD5F0DAE4CDFBE4CCFAE4C8F9229A
:100DB400C2D5E830E70FB2D5E4C39BFBE49AFAE46A
:100DC40099F9E498F8EC30E717B2D5120DEA120954
:100DD40000E4C39BFBE49AFAE499F9E498F88003ED
:100DE40012090030D50DE4C39FFFE49EFEE49DFD8F
:040DF400E49CFC225D
:10099200EB9FF5F0EA9E42F0E99D42F0E89C45F0BB
:0109A2002232
:1009A300BC000BBE0029EF8DF084FFADF022E4CC38
:1009B300F875F008EF2FFFEE33FEEC33FCEE9DEC01
:1009C300984005FCEE9DFE0FD5F0E9E4CEFD22ED47
:1009D300F8F5F0EE8420D21CFEADF075F008EF2F91
:1009E300FFED33FD4007985006D5F0F222C398FD82
:0509F3000FD5F0EA221F
:00000001FF
